{
  "contractName": "Doctor",
  "abi": [
    {
      "constant": true,
      "inputs": [
        {
          "name": "",
          "type": "address"
        }
      ],
      "name": "info",
      "outputs": [
        {
          "name": "id",
          "type": "uint256"
        },
        {
          "name": "name",
          "type": "string"
        },
        {
          "name": "age",
          "type": "uint256"
        },
        {
          "name": "gender",
          "type": "string"
        }
      ],
      "payable": false,
      "stateMutability": "view",
      "type": "function",
      "signature": "0x0aae7a6b"
    },
    {
      "constant": true,
      "inputs": [
        {
          "name": "",
          "type": "uint256"
        }
      ],
      "name": "adr",
      "outputs": [
        {
          "name": "",
          "type": "address"
        }
      ],
      "payable": false,
      "stateMutability": "view",
      "type": "function",
      "signature": "0x518dc941"
    },
    {
      "constant": true,
      "inputs": [],
      "name": "doctorCount",
      "outputs": [
        {
          "name": "",
          "type": "uint256"
        }
      ],
      "payable": false,
      "stateMutability": "view",
      "type": "function",
      "signature": "0x78522bc4"
    },
    {
      "constant": true,
      "inputs": [],
      "name": "p",
      "outputs": [
        {
          "name": "",
          "type": "uint256"
        }
      ],
      "payable": false,
      "stateMutability": "view",
      "type": "function",
      "signature": "0x9ae8886a"
    },
    {
      "constant": true,
      "inputs": [],
      "name": "treatCount",
      "outputs": [
        {
          "name": "",
          "type": "uint256"
        }
      ],
      "payable": false,
      "stateMutability": "view",
      "type": "function",
      "signature": "0xb4d61c75"
    },
    {
      "constant": true,
      "inputs": [
        {
          "name": "",
          "type": "uint256"
        }
      ],
      "name": "patientlist",
      "outputs": [
        {
          "name": "pid",
          "type": "uint256"
        },
        {
          "name": "name",
          "type": "string"
        },
        {
          "name": "age",
          "type": "uint256"
        },
        {
          "name": "gender",
          "type": "string"
        },
        {
          "name": "bg",
          "type": "string"
        },
        {
          "name": "medname",
          "type": "bytes32"
        },
        {
          "name": "medtype",
          "type": "bytes32"
        },
        {
          "name": "sdate",
          "type": "bytes32"
        },
        {
          "name": "edate",
          "type": "bytes32"
        },
        {
          "name": "nof",
          "type": "bytes32"
        },
        {
          "name": "did",
          "type": "uint256"
        }
      ],
      "payable": false,
      "stateMutability": "view",
      "type": "function",
      "signature": "0xc2046392"
    },
    {
      "constant": false,
      "inputs": [
        {
          "name": "_name",
          "type": "string"
        },
        {
          "name": "_age",
          "type": "uint256"
        },
        {
          "name": "_gender",
          "type": "string"
        },
        {
          "name": "_bg",
          "type": "string"
        },
        {
          "name": "_pid",
          "type": "uint256"
        },
        {
          "name": "_medname",
          "type": "bytes32"
        },
        {
          "name": "_medtype",
          "type": "bytes32"
        },
        {
          "name": "_sdate",
          "type": "bytes32"
        },
        {
          "name": "_edate",
          "type": "bytes32"
        },
        {
          "name": "_nof",
          "type": "bytes32"
        },
        {
          "name": "_did",
          "type": "uint256"
        }
      ],
      "name": "WriteMedication",
      "outputs": [],
      "payable": false,
      "stateMutability": "nonpayable",
      "type": "function",
      "signature": "0x39be4780"
    },
    {
      "constant": true,
      "inputs": [
        {
          "name": "_id",
          "type": "uint256"
        },
        {
          "name": "_key",
          "type": "uint256"
        }
      ],
      "name": "GetMedicationList",
      "outputs": [
        {
          "name": "_name",
          "type": "string"
        },
        {
          "name": "_medname",
          "type": "bytes32"
        },
        {
          "name": "_medtype",
          "type": "bytes32"
        },
        {
          "name": "_sdate",
          "type": "bytes32"
        },
        {
          "name": "_edate",
          "type": "bytes32"
        },
        {
          "name": "_nof",
          "type": "bytes32"
        },
        {
          "name": "_treatCount",
          "type": "uint256"
        }
      ],
      "payable": false,
      "stateMutability": "view",
      "type": "function",
      "signature": "0x87b4579f"
    },
    {
      "constant": false,
      "inputs": [
        {
          "name": "_p_id",
          "type": "uint256"
        },
        {
          "name": "_key",
          "type": "uint256"
        },
        {
          "name": "_address",
          "type": "address"
        }
      ],
      "name": "setp",
      "outputs": [],
      "payable": false,
      "stateMutability": "nonpayable",
      "type": "function",
      "signature": "0x862f4725"
    },
    {
      "constant": true,
      "inputs": [
        {
          "name": "_key",
          "type": "uint256"
        }
      ],
      "name": "getPlen",
      "outputs": [
        {
          "name": "count",
          "type": "uint256"
        }
      ],
      "payable": false,
      "stateMutability": "view",
      "type": "function",
      "signature": "0x3c35882d"
    },
    {
      "constant": true,
      "inputs": [
        {
          "name": "_id",
          "type": "uint256"
        },
        {
          "name": "_key",
          "type": "uint256"
        }
      ],
      "name": "getP",
      "outputs": [
        {
          "name": "_name",
          "type": "string"
        },
        {
          "name": "_age",
          "type": "uint256"
        },
        {
          "name": "_gender",
          "type": "string"
        },
        {
          "name": "_bg",
          "type": "string"
        },
        {
          "name": "_patientCount",
          "type": "uint256"
        },
        {
          "name": "_pid",
          "type": "uint256"
        }
      ],
      "payable": false,
      "stateMutability": "view",
      "type": "function",
      "signature": "0x90308609"
    },
    {
      "constant": false,
      "inputs": [
        {
          "name": "_address",
          "type": "address"
        }
      ],
      "name": "setAddressB",
      "outputs": [],
      "payable": false,
      "stateMutability": "nonpayable",
      "type": "function",
      "signature": "0xa4ef9cf4"
    },
    {
      "constant": true,
      "inputs": [],
      "name": "getAddressB",
      "outputs": [
        {
          "name": "a",
          "type": "address"
        }
      ],
      "payable": false,
      "stateMutability": "view",
      "type": "function",
      "signature": "0x6c3364ea"
    },
    {
      "constant": false,
      "inputs": [
        {
          "name": "_name",
          "type": "string"
        },
        {
          "name": "_age",
          "type": "uint256"
        },
        {
          "name": "_gender",
          "type": "string"
        },
        {
          "name": "_address",
          "type": "address"
        }
      ],
      "name": "set",
      "outputs": [],
      "payable": false,
      "stateMutability": "nonpayable",
      "type": "function",
      "signature": "0x21eaed33"
    },
    {
      "constant": true,
      "inputs": [
        {
          "name": "s",
          "type": "address"
        }
      ],
      "name": "check",
      "outputs": [
        {
          "name": "t",
          "type": "int256"
        }
      ],
      "payable": false,
      "stateMutability": "view",
      "type": "function",
      "signature": "0xc23697a8"
    },
    {
      "constant": true,
      "inputs": [
        {
          "name": "i",
          "type": "uint256"
        }
      ],
      "name": "getall",
      "outputs": [
        {
          "name": "_name",
          "type": "string"
        },
        {
          "name": "_age",
          "type": "uint256"
        },
        {
          "name": "_gender",
          "type": "string"
        },
        {
          "name": "_doctorCount",
          "type": "uint256"
        }
      ],
      "payable": false,
      "stateMutability": "view",
      "type": "function",
      "signature": "0x1c3fcc60"
    }
  ],
  "bytecode": "0x608060405260008055600060015534801561001957600080fd5b50612072806100296000396000f3fe6080604052600436106100e6576000357c0100000000000000000000000000000000000000000000000000000000900463ffffffff1680630aae7a6b146100eb5780631c3fcc601461022f57806321eaed331461035d57806339be4780146104e65780633c35882d1461072d578063518dc9411461077c5780636c3364ea146107f757806378522bc41461084e578063862f47251461087957806387b4579f146108de57806390308609146109c65780639ae8886a14610b71578063a4ef9cf414610b9c578063b4d61c7514610bed578063c204639214610c18578063c23697a814610ddc575b600080fd5b3480156100f757600080fd5b5061013a6004803603602081101561010e57600080fd5b81019080803573ffffffffffffffffffffffffffffffffffffffff169060200190929190505050610e41565b604051808581526020018060200184815260200180602001838103835286818151815260200191508051906020019080838360005b8381101561018a57808201518184015260208101905061016f565b50505050905090810190601f1680156101b75780820380516001836020036101000a031916815260200191505b50838103825284818151815260200191508051906020019080838360005b838110156101f05780820151818401526020810190506101d5565b50505050905090810190601f16801561021d5780820380516001836020036101000a031916815260200191505b50965050505050505060405180910390f35b34801561023b57600080fd5b506102686004803603602081101561025257600080fd5b8101908080359060200190929190505050610fa1565b604051808060200185815260200180602001848152602001838103835287818151815260200191508051906020019080838360005b838110156102b857808201518184015260208101905061029d565b50505050905090810190601f1680156102e55780820380516001836020036101000a031916815260200191505b50838103825285818151815260200191508051906020019080838360005b8381101561031e578082015181840152602081019050610303565b50505050905090810190601f16801561034b5780820380516001836020036101000a031916815260200191505b50965050505050505060405180910390f35b34801561036957600080fd5b506104e46004803603608081101561038057600080fd5b810190808035906020019064010000000081111561039d57600080fd5b8201836020820111156103af57600080fd5b803590602001918460018302840111640100000000831117156103d157600080fd5b91908080601f016020809104026020016040519081016040528093929190818152602001838380828437600081840152601f19601f820116905080830192505050505050509192919290803590602001909291908035906020019064010000000081111561043e57600080fd5b82018360208201111561045057600080fd5b8035906020019184600183028401116401000000008311171561047257600080fd5b91908080601f016020809104026020016040519081016040528093929190818152602001838380828437600081840152601f19601f820116905080830192505050505050509192919290803573ffffffffffffffffffffffffffffffffffffffff169060200190929190505050611253565b005b3480156104f257600080fd5b5061072b600480360361016081101561050a57600080fd5b810190808035906020019064010000000081111561052757600080fd5b82018360208201111561053957600080fd5b8035906020019184600183028401116401000000008311171561055b57600080fd5b91908080601f016020809104026020016040519081016040528093929190818152602001838380828437600081840152601f19601f82011690508083019250505050505050919291929080359060200190929190803590602001906401000000008111156105c857600080fd5b8201836020820111156105da57600080fd5b803590602001918460018302840111640100000000831117156105fc57600080fd5b91908080601f016020809104026020016040519081016040528093929190818152602001838380828437600081840152601f19601f8201169050808301925050505050505091929192908035906020019064010000000081111561065f57600080fd5b82018360208201111561067157600080fd5b8035906020019184600183028401116401000000008311171561069357600080fd5b91908080601f016020809104026020016040519081016040528093929190818152602001838380828437600081840152601f19601f82011690508083019250505050505050919291929080359060200190929190803590602001909291908035906020019092919080359060200190929190803590602001909291908035906020019092919080359060200190929190505050611371565b005b34801561073957600080fd5b506107666004803603602081101561075057600080fd5b81019080803590602001909291905050506116eb565b6040518082815260200191505060405180910390f35b34801561078857600080fd5b506107b56004803603602081101561079f57600080fd5b810190808035906020019092919050505061170b565b604051808273ffffffffffffffffffffffffffffffffffffffff1673ffffffffffffffffffffffffffffffffffffffff16815260200191505060405180910390f35b34801561080357600080fd5b5061080c61173e565b604051808273ffffffffffffffffffffffffffffffffffffffff1673ffffffffffffffffffffffffffffffffffffffff16815260200191505060405180910390f35b34801561085a57600080fd5b50610863611768565b6040518082815260200191505060405180910390f35b34801561088557600080fd5b506108dc6004803603606081101561089c57600080fd5b810190808035906020019092919080359060200190929190803573ffffffffffffffffffffffffffffffffffffffff16906020019092919050505061176e565b005b3480156108ea57600080fd5b506109216004803603604081101561090157600080fd5b810190808035906020019092919080359060200190929190505050611874565b6040518080602001888152602001878152602001868152602001858152602001848152602001838152602001828103825289818151815260200191508051906020019080838360005b8381101561098557808201518184015260208101905061096a565b50505050905090810190601f1680156109b25780820380516001836020036101000a031916815260200191505b509850505050505050505060405180910390f35b3480156109d257600080fd5b50610a09600480360360408110156109e957600080fd5b8101908080359060200190929190803590602001909291905050506119e5565b6040518080602001878152602001806020018060200186815260200185815260200184810384528a818151815260200191508051906020019080838360005b83811015610a63578082015181840152602081019050610a48565b50505050905090810190601f168015610a905780820380516001836020036101000a031916815260200191505b50848103835288818151815260200191508051906020019080838360005b83811015610ac9578082015181840152602081019050610aae565b50505050905090810190601f168015610af65780820380516001836020036101000a031916815260200191505b50848103825287818151815260200191508051906020019080838360005b83811015610b2f578082015181840152602081019050610b14565b50505050905090810190601f168015610b5c5780820380516001836020036101000a031916815260200191505b50995050505050505050505060405180910390f35b348015610b7d57600080fd5b50610b86611c42565b6040518082815260200191505060405180910390f35b348015610ba857600080fd5b50610beb60048036036020811015610bbf57600080fd5b81019080803573ffffffffffffffffffffffffffffffffffffffff169060200190929190505050611c48565b005b348015610bf957600080fd5b50610c02611c8c565b6040518082815260200191505060405180910390f35b348015610c2457600080fd5b50610c5160048036036020811015610c3b57600080fd5b8101908080359060200190929190505050611c92565b604051808c8152602001806020018b815260200180602001806020018a815260200189815260200188815260200187815260200186815260200185815260200184810384528e818151815260200191508051906020019080838360005b83811015610cc9578082015181840152602081019050610cae565b50505050905090810190601f168015610cf65780820380516001836020036101000a031916815260200191505b5084810383528c818151815260200191508051906020019080838360005b83811015610d2f578082015181840152602081019050610d14565b50505050905090810190601f168015610d5c5780820380516001836020036101000a031916815260200191505b5084810382528b818151815260200191508051906020019080838360005b83811015610d95578082015181840152602081019050610d7a565b50505050905090810190601f168015610dc25780820380516001836020036101000a031916815260200191505b509e50505050505050505050505050505060405180910390f35b348015610de857600080fd5b50610e2b60048036036020811015610dff57600080fd5b81019080803573ffffffffffffffffffffffffffffffffffffffff169060200190929190505050611eb4565b6040518082815260200191505060405180910390f35b6005602052806000526040600020600091509050806000015490806001018054600181600116156101000203166002900480601f016020809104026020016040519081016040528092919081815260200182805460018160011615610100020316600290048015610ef35780601f10610ec857610100808354040283529160200191610ef3565b820191906000526020600020905b815481529060010190602001808311610ed657829003601f168201915b505050505090806002015490806003018054600181600116156101000203166002900480601f016020809104026020016040519081016040528092919081815260200182805460018160011615610100020316600290048015610f975780601f10610f6c57610100808354040283529160200191610f97565b820191906000526020600020905b815481529060010190602001808311610f7a57829003601f168201915b5050505050905084565b6060600060606000600560006004600088815260200190815260200160002060009054906101000a900473ffffffffffffffffffffffffffffffffffffffff1673ffffffffffffffffffffffffffffffffffffffff1673ffffffffffffffffffffffffffffffffffffffff168152602001908152602001600020600101600560006004600089815260200190815260200160002060009054906101000a900473ffffffffffffffffffffffffffffffffffffffff1673ffffffffffffffffffffffffffffffffffffffff1673ffffffffffffffffffffffffffffffffffffffff1681526020019081526020016000206002015460056000600460008a815260200190815260200160002060009054906101000a900473ffffffffffffffffffffffffffffffffffffffff1673ffffffffffffffffffffffffffffffffffffffff1673ffffffffffffffffffffffffffffffffffffffff168152602001908152602001600020600301600054838054600181600116156101000203166002900480601f0160208091040260200160405190810160405280929190818152602001828054600181600116156101000203166002900480156111a15780601f10611176576101008083540402835291602001916111a1565b820191906000526020600020905b81548152906001019060200180831161118457829003601f168201915b50505050509350818054600181600116156101000203166002900480601f01602080910402602001604051908101604052809291908181526020018280546001816001161561010002031660029004801561123d5780601f106112125761010080835404028352916020019161123d565b820191906000526020600020905b81548152906001019060200180831161122057829003601f168201915b5050505050915093509350935093509193509193565b600080815480929190600101919050555033600460008054815260200190815260200160002060006101000a81548173ffffffffffffffffffffffffffffffffffffffff021916908373ffffffffffffffffffffffffffffffffffffffff160217905550608060405190810160405280600054815260200185815260200184815260200183815250600560008373ffffffffffffffffffffffffffffffffffffffff1673ffffffffffffffffffffffffffffffffffffffff168152602001908152602001600020600082015181600001556020820151816001019080519060200190611340929190611fa1565b50604082015181600201556060820151816003019080519060200190611367929190611fa1565b5090505050505050565b6001600081548092919060010191905055506101606040519081016040528060015481526020018c81526020018b81526020018a81526020018981526020018781526020018681526020018581526020018481526020018381526020018281525060066000600154815260200190815260200160002060008201518160000155602082015181600101908051906020019061140d929190611fa1565b50604082015181600201556060820151816003019080519060200190611434929190611fa1565b506080820151816004019080519060200190611451929190611fa1565b5060a0820151816005015560c0820151816006015560e082015181600701556101008201518160080155610120820151816009015561014082015181600a015590505060008090505b6001600760008481526020019081526020016000208054905003811015611648578760076000848152602001908152602001600020828154811015156114dc57fe5b9060005260206000200160000154141561163b5760076000838152602001908152602001600020600160076000858152602001908152602001600020805490500381548110151561152957fe5b9060005260206000200160000154600760008481526020019081526020016000208281548110151561155757fe5b90600052602060002001600001819055506008600083815260200190815260200160002060016008600085815260200190815260200160002080549050038154811015156115a157fe5b9060005260206000200160000160009054906101000a900473ffffffffffffffffffffffffffffffffffffffff1660086000848152602001908152602001600020828154811015156115ef57fe5b9060005260206000200160000160006101000a81548173ffffffffffffffffffffffffffffffffffffffff021916908373ffffffffffffffffffffffffffffffffffffffff1602179055505b808060010191505061149a565b5060076000828152602001908152602001600020805480151561166757fe5b60019003818190600052602060002001600080820160009055505090556008600082815260200190815260200160002080548015156116a257fe5b60019003818190600052602060002001600080820160006101000a81549073ffffffffffffffffffffffffffffffffffffffff0219169055505090555050505050505050505050565b600060076000838152602001908152602001600020805490509050919050565b60046020528060005260406000206000915054906101000a900473ffffffffffffffffffffffffffffffffffffffff1681565b6000600260009054906101000a900473ffffffffffffffffffffffffffffffffffffffff16905090565b60005481565b600760008381526020019081526020016000206020604051908101604052808581525090806001815401808255809150509060018203906000526020600020016000909192909190915060008201518160000155505050600860008381526020019081526020016000206020604051908101604052808373ffffffffffffffffffffffffffffffffffffffff1681525090806001815401808255809150509060018203906000526020600020016000909192909190915060008201518160000160006101000a81548173ffffffffffffffffffffffffffffffffffffffff021916908373ffffffffffffffffffffffffffffffffffffffff160217905550505050505050565b6060600080600080600080600660008a8152602001908152602001600020600a01548814156119d857600660008a8152602001908152602001600020600101600660008b815260200190815260200160002060050154600660008c815260200190815260200160002060060154600660008d815260200190815260200160002060070154600660008e815260200190815260200160002060080154600660008f815260200190815260200160002060090154600154868054600181600116156101000203166002900480601f0160208091040260200160405190810160405280929190818152602001828054600181600116156101000203166002900480156119be5780601f10611993576101008083540402835291602001916119be565b820191906000526020600020905b8154815290600101906020018083116119a157829003601f168201915b5050505050965096509650965096509650965096506119d9565b5b92959891949750929550565b6060600060608060008060006008600089815260200190815260200160002089815481101515611a1157fe5b9060005260206000200160000160009054906101000a900473ffffffffffffffffffffffffffffffffffffffff1690508073ffffffffffffffffffffffffffffffffffffffff16631c3fcc60600760008b81526020019081526020016000208b815481101515611a7d57fe5b90600052602060002001600001546040518263ffffffff167c01000000000000000000000000000000000000000000000000000000000281526004018082815260200191505060006040518083038186803b158015611adb57600080fd5b505afa158015611aef573d6000803e3d6000fd5b505050506040513d6000823e3d601f19601f8201168201806040525060c0811015611b1957600080fd5b810190808051640100000000811115611b3157600080fd5b82810190506020810184811115611b4757600080fd5b8151856001820283011164010000000082111715611b6457600080fd5b5050929190602001805190602001909291908051640100000000811115611b8a57600080fd5b82810190506020810184811115611ba057600080fd5b8151856001820283011164010000000082111715611bbd57600080fd5b50509291906020018051640100000000811115611bd957600080fd5b82810190506020810184811115611bef57600080fd5b8151856001820283011164010000000082111715611c0c57600080fd5b50509291906020018051906020019092919080519060200190929190505050965096509650965096509650509295509295509295565b60035481565b80600260006101000a81548173ffffffffffffffffffffffffffffffffffffffff021916908373ffffffffffffffffffffffffffffffffffffffff16021790555050565b60015481565b6006602052806000526040600020600091509050806000015490806001018054600181600116156101000203166002900480601f016020809104026020016040519081016040528092919081815260200182805460018160011615610100020316600290048015611d445780601f10611d1957610100808354040283529160200191611d44565b820191906000526020600020905b815481529060010190602001808311611d2757829003601f168201915b505050505090806002015490806003018054600181600116156101000203166002900480601f016020809104026020016040519081016040528092919081815260200182805460018160011615610100020316600290048015611de85780601f10611dbd57610100808354040283529160200191611de8565b820191906000526020600020905b815481529060010190602001808311611dcb57829003601f168201915b505050505090806004018054600181600116156101000203166002900480601f016020809104026020016040519081016040528092919081815260200182805460018160011615610100020316600290048015611e865780601f10611e5b57610100808354040283529160200191611e86565b820191906000526020600020905b815481529060010190602001808311611e6957829003601f168201915b50505050509080600501549080600601549080600701549080600801549080600901549080600a015490508b565b6000806000541415611ee8577fffffffffffffffffffffffffffffffffffffffffffffffffffffffffffffffff9050611f9c565b6000600190505b60005481111515611f77576004600082815260200190815260200160002060009054906101000a900473ffffffffffffffffffffffffffffffffffffffff1673ffffffffffffffffffffffffffffffffffffffff168373ffffffffffffffffffffffffffffffffffffffff161415611f6a5780915050611f9c565b8080600101915050611eef565b507fffffffffffffffffffffffffffffffffffffffffffffffffffffffffffffffff90505b919050565b828054600181600116156101000203166002900490600052602060002090601f016020900481019282601f10611fe257805160ff1916838001178555612010565b82800160010185558215612010579182015b8281111561200f578251825591602001919060010190611ff4565b5b50905061201d9190612021565b5090565b61204391905b8082111561203f576000816000905550600101612027565b5090565b9056fea165627a7a72305820dccb0e0aea00baea5e5fe8560c143a813b5d81dce29411147ca15c00afaca22e0029",
  "source": "\r\npragma solidity ^0.5.0;\r\nimport './Patient.sol';\r\ncontract Doctor{\r\n    uint public doctorCount = 0;\r\n    uint public treatCount = 0;\r\n   address addressP;\r\n    uint public p;\r\n    mapping(uint=>address) public adr;\r\n    mapping(address => Info) public info;\r\n    mapping(uint => PatientList) public patientlist;\r\n     mapping(uint => WaitList[]) waitlist;\r\n     mapping(uint => WaitListAddress[]) waitlist_add;\r\n    struct WaitList{\r\n        uint wait;\r\n    }\r\n    struct WaitListAddress{\r\n        address add;\r\n    }\r\n    struct PatientList{\r\n        uint pid;\r\n        string name;\r\n        uint age;\r\n        string gender;\r\n        string bg;\r\n        bytes32 medname;\r\n        bytes32 medtype;\r\n        bytes32 sdate;\r\n        bytes32 edate;\r\n        bytes32 nof;\r\n        uint did;\r\n    }\r\n    struct Info{\r\n    uint id;\r\n    string name;\r\n    uint age;\r\n    string gender;\r\n    }\r\n    function WriteMedication(string memory _name, uint _age, string memory _gender, string memory _bg,uint _pid,bytes32 _medname,\r\n     bytes32 _medtype,bytes32 _sdate,bytes32 _edate,bytes32 _nof,uint _did ) public{\r\n        treatCount++;\r\n        patientlist[treatCount] = PatientList(treatCount,_name,_age,_gender,_bg,_medname,_medtype,_sdate,_edate,_nof,_did);\r\n        for(uint i = 0;i<waitlist[_did].length-1;i++){\r\n            if(waitlist[_did][i].wait==_pid){\r\n                waitlist[_did][i].wait = waitlist[_did][waitlist[_did].length-1].wait;\r\n                waitlist_add[_did][i].add = waitlist_add[_did][waitlist_add[_did].length-1].add;\r\n            }\r\n        }\r\n        waitlist[_did].pop();\r\n        waitlist_add[_did].pop();\r\n    }\r\n    function GetMedicationList(uint _id,uint _key)public view returns(string memory _name,bytes32 _medname, bytes32 _medtype,\r\n     bytes32 _sdate, bytes32 _edate, bytes32 _nof,uint _treatCount){\r\n         if(_key==patientlist[_id].did)\r\n        return(patientlist[_id].name,patientlist[_id].medname,patientlist[_id].medtype,patientlist[_id].sdate,\r\n        patientlist[_id].edate,patientlist[_id].nof,treatCount);\r\n    }\r\n    function setp(uint _p_id,uint _key, address _address) public {\r\n     waitlist[_key].push(WaitList(_p_id));\r\n     waitlist_add[_key].push(WaitListAddress(_address));\r\n    }\r\nfunction getPlen (uint _key) external view returns(uint count) {\r\n        return (waitlist[_key].length);\r\n }\r\n function getP (uint _id,uint _key) external view returns(string memory _name, uint _age, string memory _gender,\r\n  string memory _bg,uint _patientCount,uint _pid) {\r\n       Patient myPatient = Patient(waitlist_add[_key][_id].add);\r\n        return (myPatient.getall(waitlist[_key][_id].wait));\r\n }\r\n function setAddressB(address _address) external{\r\n     addressP = _address;\r\n }\r\n function getAddressB() public view returns(address a){\r\n     return(addressP);\r\n }\r\n    function set(string memory _name, uint _age, string memory _gender, address _address) public {\r\n        doctorCount++;\r\n        adr[doctorCount] = msg.sender;\r\n        info[_address] = Info(doctorCount, _name,_age,_gender);\r\n    }\r\n    function check(address s) public view returns(int t){\r\n        if(doctorCount==0){\r\n            return -1;\r\n        }\r\n        for(uint i = 1; i <= doctorCount ;i++){\r\n            if(s==adr[i]){\r\n                return int(i);\r\n            }\r\n        }\r\n        return -1;\r\n    }\r\n    // function get() public view returns(string memory _name, uint _age, string memory _gender){\r\n    // return (info[doctorCount].name, info[doctorCount].age, info[doctorCount].gender) ;\r\n    // }\r\n    function getall(uint i) public view returns(string memory _name, uint _age, string memory _gender,uint _doctorCount){\r\n        return (info[adr[i]].name, info[adr[i]].age, info[adr[i]].gender,doctorCount);\r\n    }\r\n}",
  "sourcePath": "B:/Healthcare_in_BlockChain/src/contracts/Doctor.sol",
  "compiler": {
    "name": "solc",
    "version": "0.5.0+commit.1d4f565a.Emscripten.clang"
  },
  "schemaVersion": "3.0.2",
  "updatedAt": "2020-02-01T07:17:19.951Z",
  "devdoc": {
    "methods": {}
  },
  "userdoc": {
    "methods": {}
  }
}