{
  "contractName": "Doctor",
  "abi": [
    {
      "constant": true,
      "inputs": [
        {
          "name": "",
          "type": "uint256"
        }
      ],
      "name": "info",
      "outputs": [
        {
          "name": "id",
          "type": "uint256"
        },
        {
          "name": "name",
          "type": "string"
        },
        {
          "name": "age",
          "type": "uint256"
        },
        {
          "name": "gender",
          "type": "string"
        }
      ],
      "payable": false,
      "stateMutability": "view",
      "type": "function",
      "signature": "0x2e340599"
    },
    {
      "constant": true,
      "inputs": [],
      "name": "doctorCount",
      "outputs": [
        {
          "name": "",
          "type": "uint256"
        }
      ],
      "payable": false,
      "stateMutability": "view",
      "type": "function",
      "signature": "0x78522bc4"
    },
    {
      "constant": true,
      "inputs": [],
      "name": "p",
      "outputs": [
        {
          "name": "",
          "type": "uint256"
        }
      ],
      "payable": false,
      "stateMutability": "view",
      "type": "function",
      "signature": "0x9ae8886a"
    },
    {
      "constant": true,
      "inputs": [],
      "name": "treatCount",
      "outputs": [
        {
          "name": "",
          "type": "uint256"
        }
      ],
      "payable": false,
      "stateMutability": "view",
      "type": "function",
      "signature": "0xb4d61c75"
    },
    {
      "constant": true,
      "inputs": [
        {
          "name": "",
          "type": "uint256"
        }
      ],
      "name": "patientlist",
      "outputs": [
        {
          "name": "pid",
          "type": "uint256"
        },
        {
          "name": "name",
          "type": "string"
        },
        {
          "name": "age",
          "type": "uint256"
        },
        {
          "name": "gender",
          "type": "string"
        },
        {
          "name": "bg",
          "type": "string"
        },
        {
          "name": "medname",
          "type": "bytes32"
        },
        {
          "name": "medtype",
          "type": "bytes32"
        },
        {
          "name": "sdate",
          "type": "bytes32"
        },
        {
          "name": "edate",
          "type": "bytes32"
        },
        {
          "name": "nof",
          "type": "bytes32"
        },
        {
          "name": "did",
          "type": "uint256"
        }
      ],
      "payable": false,
      "stateMutability": "view",
      "type": "function",
      "signature": "0xc2046392"
    },
    {
      "constant": false,
      "inputs": [
        {
          "name": "_name",
          "type": "string"
        },
        {
          "name": "_age",
          "type": "uint256"
        },
        {
          "name": "_gender",
          "type": "string"
        },
        {
          "name": "_bg",
          "type": "string"
        },
        {
          "name": "_pid",
          "type": "uint256"
        },
        {
          "name": "_medname",
          "type": "bytes32"
        },
        {
          "name": "_medtype",
          "type": "bytes32"
        },
        {
          "name": "_sdate",
          "type": "bytes32"
        },
        {
          "name": "_edate",
          "type": "bytes32"
        },
        {
          "name": "_nof",
          "type": "bytes32"
        },
        {
          "name": "_did",
          "type": "uint256"
        }
      ],
      "name": "WriteMedication",
      "outputs": [],
      "payable": false,
      "stateMutability": "nonpayable",
      "type": "function",
      "signature": "0x39be4780"
    },
    {
      "constant": true,
      "inputs": [
        {
          "name": "_id",
          "type": "uint256"
        },
        {
          "name": "_key",
          "type": "uint256"
        }
      ],
      "name": "GetMedicationList",
      "outputs": [
        {
          "name": "_name",
          "type": "string"
        },
        {
          "name": "_medname",
          "type": "bytes32"
        },
        {
          "name": "_medtype",
          "type": "bytes32"
        },
        {
          "name": "_sdate",
          "type": "bytes32"
        },
        {
          "name": "_edate",
          "type": "bytes32"
        },
        {
          "name": "_nof",
          "type": "bytes32"
        },
        {
          "name": "_treatCount",
          "type": "uint256"
        }
      ],
      "payable": false,
      "stateMutability": "view",
      "type": "function",
      "signature": "0x87b4579f"
    },
    {
      "constant": false,
      "inputs": [
        {
          "name": "_p_id",
          "type": "uint256"
        },
        {
          "name": "_key",
          "type": "uint256"
        }
      ],
      "name": "setp",
      "outputs": [],
      "payable": false,
      "stateMutability": "nonpayable",
      "type": "function",
      "signature": "0x913a3e57"
    },
    {
      "constant": true,
      "inputs": [
        {
          "name": "_key",
          "type": "uint256"
        }
      ],
      "name": "getPlen",
      "outputs": [
        {
          "name": "count",
          "type": "uint256"
        }
      ],
      "payable": false,
      "stateMutability": "view",
      "type": "function",
      "signature": "0x3c35882d"
    },
    {
      "constant": true,
      "inputs": [
        {
          "name": "_id",
          "type": "uint256"
        },
        {
          "name": "_key",
          "type": "uint256"
        }
      ],
      "name": "getP",
      "outputs": [
        {
          "name": "_name",
          "type": "string"
        },
        {
          "name": "_age",
          "type": "uint256"
        },
        {
          "name": "_gender",
          "type": "string"
        },
        {
          "name": "_bg",
          "type": "string"
        },
        {
          "name": "_patientCount",
          "type": "uint256"
        },
        {
          "name": "_pid",
          "type": "uint256"
        }
      ],
      "payable": false,
      "stateMutability": "view",
      "type": "function",
      "signature": "0x90308609"
    },
    {
      "constant": false,
      "inputs": [
        {
          "name": "_address",
          "type": "address"
        }
      ],
      "name": "setAddressB",
      "outputs": [],
      "payable": false,
      "stateMutability": "nonpayable",
      "type": "function",
      "signature": "0xa4ef9cf4"
    },
    {
      "constant": true,
      "inputs": [],
      "name": "getAddressB",
      "outputs": [
        {
          "name": "a",
          "type": "address"
        }
      ],
      "payable": false,
      "stateMutability": "view",
      "type": "function",
      "signature": "0x6c3364ea"
    },
    {
      "constant": false,
      "inputs": [
        {
          "name": "_name",
          "type": "string"
        },
        {
          "name": "_age",
          "type": "uint256"
        },
        {
          "name": "_gender",
          "type": "string"
        }
      ],
      "name": "set",
      "outputs": [],
      "payable": false,
      "stateMutability": "nonpayable",
      "type": "function",
      "signature": "0xdab8e133"
    },
    {
      "constant": true,
      "inputs": [],
      "name": "get",
      "outputs": [
        {
          "name": "_name",
          "type": "string"
        },
        {
          "name": "_age",
          "type": "uint256"
        },
        {
          "name": "_gender",
          "type": "string"
        }
      ],
      "payable": false,
      "stateMutability": "view",
      "type": "function",
      "signature": "0x6d4ce63c"
    },
    {
      "constant": true,
      "inputs": [
        {
          "name": "i",
          "type": "uint256"
        }
      ],
      "name": "getall",
      "outputs": [
        {
          "name": "_name",
          "type": "string"
        },
        {
          "name": "_age",
          "type": "uint256"
        },
        {
          "name": "_gender",
          "type": "string"
        },
        {
          "name": "_doctorCount",
          "type": "uint256"
        }
      ],
      "payable": false,
      "stateMutability": "view",
      "type": "function",
      "signature": "0x1c3fcc60"
    }
  ],
  "bytecode": "0x608060405260008055600060015534801561001957600080fd5b50611d0c806100296000396000f3fe6080604052600436106100db576000357c0100000000000000000000000000000000000000000000000000000000900463ffffffff1680631c3fcc60146100e05780632e3405991461020e57806339be47801461033c5780633c35882d146105835780636c3364ea146105d25780636d4ce63c1461062957806378522bc41461072c57806387b4579f14610757578063903086091461083f578063913a3e57146109ea5780639ae8886a14610a2f578063a4ef9cf414610a5a578063b4d61c7514610aab578063c204639214610ad6578063dab8e13314610c9a575b600080fd5b3480156100ec57600080fd5b506101196004803603602081101561010357600080fd5b8101908080359060200190929190505050610e03565b604051808060200185815260200180602001848152602001838103835287818151815260200191508051906020019080838360005b8381101561016957808201518184015260208101905061014e565b50505050905090810190601f1680156101965780820380516001836020036101000a031916815260200191505b50838103825285818151815260200191508051906020019080838360005b838110156101cf5780820151818401526020810190506101b4565b50505050905090810190601f1680156101fc5780820380516001836020036101000a031916815260200191505b50965050505050505060405180910390f35b34801561021a57600080fd5b506102476004803603602081101561023157600080fd5b8101908080359060200190929190505050610f98565b604051808581526020018060200184815260200180602001838103835286818151815260200191508051906020019080838360005b8381101561029757808201518184015260208101905061027c565b50505050905090810190601f1680156102c45780820380516001836020036101000a031916815260200191505b50838103825284818151815260200191508051906020019080838360005b838110156102fd5780820151818401526020810190506102e2565b50505050905090810190601f16801561032a5780820380516001836020036101000a031916815260200191505b50965050505050505060405180910390f35b34801561034857600080fd5b50610581600480360361016081101561036057600080fd5b810190808035906020019064010000000081111561037d57600080fd5b82018360208201111561038f57600080fd5b803590602001918460018302840111640100000000831117156103b157600080fd5b91908080601f016020809104026020016040519081016040528093929190818152602001838380828437600081840152601f19601f820116905080830192505050505050509192919290803590602001909291908035906020019064010000000081111561041e57600080fd5b82018360208201111561043057600080fd5b8035906020019184600183028401116401000000008311171561045257600080fd5b91908080601f016020809104026020016040519081016040528093929190818152602001838380828437600081840152601f19601f820116905080830192505050505050509192919290803590602001906401000000008111156104b557600080fd5b8201836020820111156104c757600080fd5b803590602001918460018302840111640100000000831117156104e957600080fd5b91908080601f016020809104026020016040519081016040528093929190818152602001838380828437600081840152601f19601f820116905080830192505050505050509192919290803590602001909291908035906020019092919080359060200190929190803590602001909291908035906020019092919080359060200190929190803590602001909291905050506110f8565b005b34801561058f57600080fd5b506105bc600480360360208110156105a657600080fd5b810190808035906020019092919050505061134d565b6040518082815260200191505060405180910390f35b3480156105de57600080fd5b506105e761136d565b604051808273ffffffffffffffffffffffffffffffffffffffff1673ffffffffffffffffffffffffffffffffffffffff16815260200191505060405180910390f35b34801561063557600080fd5b5061063e611397565b604051808060200184815260200180602001838103835286818151815260200191508051906020019080838360005b8381101561068857808201518184015260208101905061066d565b50505050905090810190601f1680156106b55780820380516001836020036101000a031916815260200191505b50838103825284818151815260200191508051906020019080838360005b838110156106ee5780820151818401526020810190506106d3565b50505050905090810190601f16801561071b5780820380516001836020036101000a031916815260200191505b509550505050505060405180910390f35b34801561073857600080fd5b50610741611526565b6040518082815260200191505060405180910390f35b34801561076357600080fd5b5061079a6004803603604081101561077a57600080fd5b81019080803590602001909291908035906020019092919050505061152c565b6040518080602001888152602001878152602001868152602001858152602001848152602001838152602001828103825289818151815260200191508051906020019080838360005b838110156107fe5780820151818401526020810190506107e3565b50505050905090810190601f16801561082b5780820380516001836020036101000a031916815260200191505b509850505050505050505060405180910390f35b34801561084b57600080fd5b506108826004803603604081101561086257600080fd5b81019080803590602001909291908035906020019092919050505061169d565b6040518080602001878152602001806020018060200186815260200185815260200184810384528a818151815260200191508051906020019080838360005b838110156108dc5780820151818401526020810190506108c1565b50505050905090810190601f1680156109095780820380516001836020036101000a031916815260200191505b50848103835288818151815260200191508051906020019080838360005b83811015610942578082015181840152602081019050610927565b50505050905090810190601f16801561096f5780820380516001836020036101000a031916815260200191505b50848103825287818151815260200191508051906020019080838360005b838110156109a857808201518184015260208101905061098d565b50505050905090810190601f1680156109d55780820380516001836020036101000a031916815260200191505b50995050505050505050505060405180910390f35b3480156109f657600080fd5b50610a2d60048036036040811015610a0d57600080fd5b8101908080359060200190929190803590602001909291905050506118cf565b005b348015610a3b57600080fd5b50610a4461192a565b6040518082815260200191505060405180910390f35b348015610a6657600080fd5b50610aa960048036036020811015610a7d57600080fd5b81019080803573ffffffffffffffffffffffffffffffffffffffff169060200190929190505050611930565b005b348015610ab757600080fd5b50610ac0611974565b6040518082815260200191505060405180910390f35b348015610ae257600080fd5b50610b0f60048036036020811015610af957600080fd5b810190808035906020019092919050505061197a565b604051808c8152602001806020018b815260200180602001806020018a815260200189815260200188815260200187815260200186815260200185815260200184810384528e818151815260200191508051906020019080838360005b83811015610b87578082015181840152602081019050610b6c565b50505050905090810190601f168015610bb45780820380516001836020036101000a031916815260200191505b5084810383528c818151815260200191508051906020019080838360005b83811015610bed578082015181840152602081019050610bd2565b50505050905090810190601f168015610c1a5780820380516001836020036101000a031916815260200191505b5084810382528b818151815260200191508051906020019080838360005b83811015610c53578082015181840152602081019050610c38565b50505050905090810190601f168015610c805780820380516001836020036101000a031916815260200191505b509e50505050505050505050505050505060405180910390f35b348015610ca657600080fd5b50610e0160048036036060811015610cbd57600080fd5b8101908080359060200190640100000000811115610cda57600080fd5b820183602082011115610cec57600080fd5b80359060200191846001830284011164010000000083111715610d0e57600080fd5b91908080601f016020809104026020016040519081016040528093929190818152602001838380828437600081840152601f19601f8201169050808301925050505050505091929192908035906020019092919080359060200190640100000000811115610d7b57600080fd5b820183602082011115610d8d57600080fd5b80359060200191846001830284011164010000000083111715610daf57600080fd5b91908080601f016020809104026020016040519081016040528093929190818152602001838380828437600081840152601f19601f820116905080830192505050505050509192919290505050611b9c565b005b606060006060600060046000868152602001908152602001600020600101600460008781526020019081526020016000206002015460046000888152602001908152602001600020600301600054838054600181600116156101000203166002900480601f016020809104026020016040519081016040528092919081815260200182805460018160011615610100020316600290048015610ee65780601f10610ebb57610100808354040283529160200191610ee6565b820191906000526020600020905b815481529060010190602001808311610ec957829003601f168201915b50505050509350818054600181600116156101000203166002900480601f016020809104026020016040519081016040528092919081815260200182805460018160011615610100020316600290048015610f825780601f10610f5757610100808354040283529160200191610f82565b820191906000526020600020905b815481529060010190602001808311610f6557829003601f168201915b5050505050915093509350935093509193509193565b6004602052806000526040600020600091509050806000015490806001018054600181600116156101000203166002900480601f01602080910402602001604051908101604052809291908181526020018280546001816001161561010002031660029004801561104a5780601f1061101f5761010080835404028352916020019161104a565b820191906000526020600020905b81548152906001019060200180831161102d57829003601f168201915b505050505090806002015490806003018054600181600116156101000203166002900480601f0160208091040260200160405190810160405280929190818152602001828054600181600116156101000203166002900480156110ee5780601f106110c3576101008083540402835291602001916110ee565b820191906000526020600020905b8154815290600101906020018083116110d157829003601f168201915b5050505050905084565b6001600081548092919060010191905055506101606040519081016040528060015481526020018c81526020018b81526020018a815260200189815260200187815260200186815260200185815260200184815260200183815260200182815250600560006001548152602001908152602001600020600082015181600001556020820151816001019080519060200190611194929190611c3b565b506040820151816002015560608201518160030190805190602001906111bb929190611c3b565b5060808201518160040190805190602001906111d8929190611c3b565b5060a0820151816005015560c0820151816006015560e082015181600701556101008201518160080155610120820151816009015561014082015181600a015590505060008090505b60016006600084815260200190815260200160002080549050038110156113045787600660008481526020019081526020016000208281548110151561126357fe5b906000526020600020016000015414156112f757876003819055506006600083815260200190815260200160002060016006600085815260200190815260200160002080549050038154811015156112b757fe5b906000526020600020016000015460066000848152602001908152602001600020828154811015156112e557fe5b90600052602060002001600001819055505b8080600101915050611221565b5060066000828152602001908152602001600020805480151561132357fe5b60019003818190600052602060002001600080820160009055505090555050505050505050505050565b600060066000838152602001908152602001600020805490509050919050565b6000600260009054906101000a900473ffffffffffffffffffffffffffffffffffffffff16905090565b60606000606060046000805481526020019081526020016000206001016004600080548152602001908152602001600020600201546004600080548152602001908152602001600020600301828054600181600116156101000203166002900480601f0160208091040260200160405190810160405280929190818152602001828054600181600116156101000203166002900480156114785780601f1061144d57610100808354040283529160200191611478565b820191906000526020600020905b81548152906001019060200180831161145b57829003601f168201915b50505050509250808054600181600116156101000203166002900480601f0160208091040260200160405190810160405280929190818152602001828054600181600116156101000203166002900480156115145780601f106114e957610100808354040283529160200191611514565b820191906000526020600020905b8154815290600101906020018083116114f757829003601f168201915b50505050509050925092509250909192565b60005481565b6060600080600080600080600560008a8152602001908152602001600020600a015488141561169057600560008a8152602001908152602001600020600101600560008b815260200190815260200160002060050154600560008c815260200190815260200160002060060154600560008d815260200190815260200160002060070154600560008e815260200190815260200160002060080154600560008f815260200190815260200160002060090154600154868054600181600116156101000203166002900480601f0160208091040260200160405190810160405280929190818152602001828054600181600116156101000203166002900480156116765780601f1061164b57610100808354040283529160200191611676565b820191906000526020600020905b81548152906001019060200180831161165957829003601f168201915b505050505096509650965096509650965096509650611691565b5b92959891949750929550565b606060006060806000806000600260009054906101000a900473ffffffffffffffffffffffffffffffffffffffff1690508073ffffffffffffffffffffffffffffffffffffffff16631c3fcc60600660008b81526020019081526020016000208b81548110151561170a57fe5b90600052602060002001600001546040518263ffffffff167c01000000000000000000000000000000000000000000000000000000000281526004018082815260200191505060006040518083038186803b15801561176857600080fd5b505afa15801561177c573d6000803e3d6000fd5b505050506040513d6000823e3d601f19601f8201168201806040525060c08110156117a657600080fd5b8101908080516401000000008111156117be57600080fd5b828101905060208101848111156117d457600080fd5b81518560018202830111640100000000821117156117f157600080fd5b505092919060200180519060200190929190805164010000000081111561181757600080fd5b8281019050602081018481111561182d57600080fd5b815185600182028301116401000000008211171561184a57600080fd5b5050929190602001805164010000000081111561186657600080fd5b8281019050602081018481111561187c57600080fd5b815185600182028301116401000000008211171561189957600080fd5b50509291906020018051906020019092919080519060200190929190505050965096509650965096509650509295509295509295565b6006600082815260200190815260200160002060206040519081016040528084815250908060018154018082558091505090600182039060005260206000200160009091929091909150600082015181600001555050505050565b60035481565b80600260006101000a81548173ffffffffffffffffffffffffffffffffffffffff021916908373ffffffffffffffffffffffffffffffffffffffff16021790555050565b60015481565b6005602052806000526040600020600091509050806000015490806001018054600181600116156101000203166002900480601f016020809104026020016040519081016040528092919081815260200182805460018160011615610100020316600290048015611a2c5780601f10611a0157610100808354040283529160200191611a2c565b820191906000526020600020905b815481529060010190602001808311611a0f57829003601f168201915b505050505090806002015490806003018054600181600116156101000203166002900480601f016020809104026020016040519081016040528092919081815260200182805460018160011615610100020316600290048015611ad05780601f10611aa557610100808354040283529160200191611ad0565b820191906000526020600020905b815481529060010190602001808311611ab357829003601f168201915b505050505090806004018054600181600116156101000203166002900480601f016020809104026020016040519081016040528092919081815260200182805460018160011615610100020316600290048015611b6e5780601f10611b4357610100808354040283529160200191611b6e565b820191906000526020600020905b815481529060010190602001808311611b5157829003601f168201915b50505050509080600501549080600601549080600701549080600801549080600901549080600a015490508b565b60008081548092919060010191905055506080604051908101604052806000548152602001848152602001838152602001828152506004600080548152602001908152602001600020600082015181600001556020820151816001019080519060200190611c0b929190611c3b565b50604082015181600201556060820151816003019080519060200190611c32929190611c3b565b50905050505050565b828054600181600116156101000203166002900490600052602060002090601f016020900481019282601f10611c7c57805160ff1916838001178555611caa565b82800160010185558215611caa579182015b82811115611ca9578251825591602001919060010190611c8e565b5b509050611cb79190611cbb565b5090565b611cdd91905b80821115611cd9576000816000905550600101611cc1565b5090565b9056fea165627a7a72305820699f26492ab8a68412e521f28113e03c0861ed1cfb04e398f5e17eb379b10e0c0029",
  "source": "\npragma solidity ^0.5.0;\nimport './Patient.sol';\ncontract Doctor{\n    uint public doctorCount = 0;\n    uint public treatCount = 0;\n   address addressP;\n    uint public p;\n    mapping(uint => Info) public info;\n    mapping(uint => PatientList) public patientlist;\n     mapping(uint => WaitList[]) waitlist;\n    struct WaitList{\n        uint wait;\n    }\n    struct PatientList{\n        uint pid;\n        string name;\n        uint age;\n        string gender;\n        string bg;\n        bytes32 medname;\n        bytes32 medtype;\n        bytes32 sdate;\n        bytes32 edate;\n        bytes32 nof;\n        uint did;\n    }\n    struct Info{\n    uint id;\n    string name;\n    uint age;\n    string gender;\n    }\n    function WriteMedication(string memory _name, uint _age, string memory _gender, string memory _bg,uint _pid,bytes32 _medname,\n     bytes32 _medtype,bytes32 _sdate,bytes32 _edate,bytes32 _nof,uint _did ) public{\n        treatCount++;\n        patientlist[treatCount] = PatientList(treatCount,_name,_age,_gender,_bg,_medname,_medtype,_sdate,_edate,_nof,_did);\n        for(uint i = 0;i<waitlist[_did].length-1;i++){\n            if(waitlist[_did][i].wait==_pid){\n                p = _pid;\n                waitlist[_did][i].wait = waitlist[_did][waitlist[_did].length-1].wait;\n            }\n        }\n        waitlist[_did].pop();\n    }\n    function GetMedicationList(uint _id,uint _key)public view returns(string memory _name,bytes32 _medname, bytes32 _medtype,\n     bytes32 _sdate, bytes32 _edate, bytes32 _nof,uint _treatCount){\n         if(_key==patientlist[_id].did)\n        return(patientlist[_id].name,patientlist[_id].medname,patientlist[_id].medtype,patientlist[_id].sdate,\n        patientlist[_id].edate,patientlist[_id].nof,treatCount);\n    }\n    function setp(uint _p_id,uint _key) public {\n     waitlist[_key].push(WaitList(_p_id));\n    }\nfunction getPlen (uint _key) external view returns(uint count) {\n        return (waitlist[_key].length);\n }\n function getP (uint _id,uint _key) external view returns(string memory _name, uint _age, string memory _gender,\n  string memory _bg,uint _patientCount,uint _pid) {\n       Patient myPatient = Patient(addressP);\n        return (myPatient.getall(waitlist[_key][_id].wait));\n }\n function setAddressB(address _address) external{\n     addressP = _address;\n }\n function getAddressB() public view returns(address a){\n     return(addressP);\n }\n    function set(string memory _name, uint _age, string memory _gender) public {\n        doctorCount++;\n        info[doctorCount] = Info(doctorCount, _name,_age,_gender);\n    }\n    function get() public view returns(string memory _name, uint _age, string memory _gender){\n    return (info[doctorCount].name, info[doctorCount].age, info[doctorCount].gender) ;\n    }\n    function getall(uint i) public view returns(string memory _name, uint _age, string memory _gender,uint _doctorCount){\n        return (info[i].name, info[i].age, info[i].gender,doctorCount);\n    }\n}",
  "sourcePath": "/Users/sachinchandwani/Desktop/BE2/healthcare2/src/contracts/Doctor.sol",
  "compiler": {
    "name": "solc",
    "version": "0.5.0+commit.1d4f565a.Emscripten.clang"
  },
  "schemaVersion": "3.0.2",
  "updatedAt": "2019-11-27T13:48:06.338Z",
  "devdoc": {
    "methods": {}
  },
  "userdoc": {
    "methods": {}
  }
}