{
  "contractName": "Doctor",
  "abi": [
    {
      "constant": true,
      "inputs": [
        {
          "name": "",
          "type": "uint256"
        }
      ],
      "name": "info",
      "outputs": [
        {
          "name": "id",
          "type": "uint256"
        },
        {
          "name": "name",
          "type": "string"
        },
        {
          "name": "age",
          "type": "uint256"
        },
        {
          "name": "gender",
          "type": "string"
        }
      ],
      "payable": false,
      "stateMutability": "view",
      "type": "function",
      "signature": "0x2e340599"
    },
    {
      "constant": true,
      "inputs": [],
      "name": "doctorCount",
      "outputs": [
        {
          "name": "",
          "type": "uint256"
        }
      ],
      "payable": false,
      "stateMutability": "view",
      "type": "function",
      "signature": "0x78522bc4"
    },
    {
      "constant": true,
      "inputs": [],
      "name": "p",
      "outputs": [
        {
          "name": "",
          "type": "uint256"
        }
      ],
      "payable": false,
      "stateMutability": "view",
      "type": "function",
      "signature": "0x9ae8886a"
    },
    {
      "constant": true,
      "inputs": [],
      "name": "treatCount",
      "outputs": [
        {
          "name": "",
          "type": "uint256"
        }
      ],
      "payable": false,
      "stateMutability": "view",
      "type": "function",
      "signature": "0xb4d61c75"
    },
    {
      "constant": true,
      "inputs": [
        {
          "name": "",
          "type": "uint256"
        }
      ],
      "name": "patientlist",
      "outputs": [
        {
          "name": "pid",
          "type": "uint256"
        },
        {
          "name": "name",
          "type": "string"
        },
        {
          "name": "age",
          "type": "uint256"
        },
        {
          "name": "gender",
          "type": "string"
        },
        {
          "name": "bg",
          "type": "string"
        },
        {
          "name": "medname",
          "type": "bytes32"
        },
        {
          "name": "medtype",
          "type": "bytes32"
        },
        {
          "name": "sdate",
          "type": "bytes32"
        },
        {
          "name": "edate",
          "type": "bytes32"
        },
        {
          "name": "nof",
          "type": "bytes32"
        },
        {
          "name": "did",
          "type": "uint256"
        }
      ],
      "payable": false,
      "stateMutability": "view",
      "type": "function",
      "signature": "0xc2046392"
    },
    {
      "constant": false,
      "inputs": [
        {
          "name": "_name",
          "type": "string"
        },
        {
          "name": "_age",
          "type": "uint256"
        },
        {
          "name": "_gender",
          "type": "string"
        },
        {
          "name": "_bg",
          "type": "string"
        },
        {
          "name": "_pid",
          "type": "uint256"
        },
        {
          "name": "_medname",
          "type": "bytes32"
        },
        {
          "name": "_medtype",
          "type": "bytes32"
        },
        {
          "name": "_sdate",
          "type": "bytes32"
        },
        {
          "name": "_edate",
          "type": "bytes32"
        },
        {
          "name": "_nof",
          "type": "bytes32"
        },
        {
          "name": "_did",
          "type": "uint256"
        }
      ],
      "name": "WriteMedication",
      "outputs": [],
      "payable": false,
      "stateMutability": "nonpayable",
      "type": "function",
      "signature": "0x39be4780"
    },
    {
      "constant": true,
      "inputs": [
        {
          "name": "_id",
          "type": "uint256"
        },
        {
          "name": "_key",
          "type": "uint256"
        }
      ],
      "name": "GetMedicationList",
      "outputs": [
        {
          "name": "_name",
          "type": "string"
        },
        {
          "name": "_medname",
          "type": "bytes32"
        },
        {
          "name": "_medtype",
          "type": "bytes32"
        },
        {
          "name": "_sdate",
          "type": "bytes32"
        },
        {
          "name": "_edate",
          "type": "bytes32"
        },
        {
          "name": "_nof",
          "type": "bytes32"
        },
        {
          "name": "_treatCount",
          "type": "uint256"
        }
      ],
      "payable": false,
      "stateMutability": "view",
      "type": "function",
      "signature": "0x87b4579f"
    },
    {
      "constant": false,
      "inputs": [
        {
          "name": "_p_id",
          "type": "uint256"
        },
        {
          "name": "_key",
          "type": "uint256"
        },
        {
          "name": "_address",
          "type": "address"
        }
      ],
      "name": "setp",
      "outputs": [],
      "payable": false,
      "stateMutability": "nonpayable",
      "type": "function",
      "signature": "0x862f4725"
    },
    {
      "constant": true,
      "inputs": [
        {
          "name": "_key",
          "type": "uint256"
        }
      ],
      "name": "getPlen",
      "outputs": [
        {
          "name": "count",
          "type": "uint256"
        }
      ],
      "payable": false,
      "stateMutability": "view",
      "type": "function",
      "signature": "0x3c35882d"
    },
    {
      "constant": true,
      "inputs": [
        {
          "name": "_id",
          "type": "uint256"
        },
        {
          "name": "_key",
          "type": "uint256"
        }
      ],
      "name": "getP",
      "outputs": [
        {
          "name": "_name",
          "type": "string"
        },
        {
          "name": "_age",
          "type": "uint256"
        },
        {
          "name": "_gender",
          "type": "string"
        },
        {
          "name": "_bg",
          "type": "string"
        },
        {
          "name": "_patientCount",
          "type": "uint256"
        },
        {
          "name": "_pid",
          "type": "uint256"
        }
      ],
      "payable": false,
      "stateMutability": "view",
      "type": "function",
      "signature": "0x90308609"
    },
    {
      "constant": false,
      "inputs": [
        {
          "name": "_name",
          "type": "string"
        },
        {
          "name": "_age",
          "type": "uint256"
        },
        {
          "name": "_gender",
          "type": "string"
        }
      ],
      "name": "set",
      "outputs": [],
      "payable": false,
      "stateMutability": "nonpayable",
      "type": "function",
      "signature": "0xdab8e133"
    },
    {
      "constant": true,
      "inputs": [],
      "name": "get",
      "outputs": [
        {
          "name": "_name",
          "type": "string"
        },
        {
          "name": "_age",
          "type": "uint256"
        },
        {
          "name": "_gender",
          "type": "string"
        }
      ],
      "payable": false,
      "stateMutability": "view",
      "type": "function",
      "signature": "0x6d4ce63c"
    },
    {
      "constant": true,
      "inputs": [
        {
          "name": "i",
          "type": "uint256"
        }
      ],
      "name": "getall",
      "outputs": [
        {
          "name": "_name",
          "type": "string"
        },
        {
          "name": "_age",
          "type": "uint256"
        },
        {
          "name": "_gender",
          "type": "string"
        },
        {
          "name": "_doctorCount",
          "type": "uint256"
        }
      ],
      "payable": false,
      "stateMutability": "view",
      "type": "function",
      "signature": "0x1c3fcc60"
    }
  ],
  "bytecode": "0x608060405260008055600060015534801561001957600080fd5b50611dfb806100296000396000f3fe6080604052600436106100c5576000357c0100000000000000000000000000000000000000000000000000000000900463ffffffff1680631c3fcc60146100ca5780632e340599146101f857806339be4780146103265780633c35882d1461056d5780636d4ce63c146105bc57806378522bc4146106bf578063862f4725146106ea57806387b4579f1461074f57806390308609146108375780639ae8886a146109e2578063b4d61c7514610a0d578063c204639214610a38578063dab8e13314610bfc575b600080fd5b3480156100d657600080fd5b50610103600480360360208110156100ed57600080fd5b8101908080359060200190929190505050610d65565b604051808060200185815260200180602001848152602001838103835287818151815260200191508051906020019080838360005b83811015610153578082015181840152602081019050610138565b50505050905090810190601f1680156101805780820380516001836020036101000a031916815260200191505b50838103825285818151815260200191508051906020019080838360005b838110156101b957808201518184015260208101905061019e565b50505050905090810190601f1680156101e65780820380516001836020036101000a031916815260200191505b50965050505050505060405180910390f35b34801561020457600080fd5b506102316004803603602081101561021b57600080fd5b8101908080359060200190929190505050610efa565b604051808581526020018060200184815260200180602001838103835286818151815260200191508051906020019080838360005b83811015610281578082015181840152602081019050610266565b50505050905090810190601f1680156102ae5780820380516001836020036101000a031916815260200191505b50838103825284818151815260200191508051906020019080838360005b838110156102e75780820151818401526020810190506102cc565b50505050905090810190601f1680156103145780820380516001836020036101000a031916815260200191505b50965050505050505060405180910390f35b34801561033257600080fd5b5061056b600480360361016081101561034a57600080fd5b810190808035906020019064010000000081111561036757600080fd5b82018360208201111561037957600080fd5b8035906020019184600183028401116401000000008311171561039b57600080fd5b91908080601f016020809104026020016040519081016040528093929190818152602001838380828437600081840152601f19601f820116905080830192505050505050509192919290803590602001909291908035906020019064010000000081111561040857600080fd5b82018360208201111561041a57600080fd5b8035906020019184600183028401116401000000008311171561043c57600080fd5b91908080601f016020809104026020016040519081016040528093929190818152602001838380828437600081840152601f19601f8201169050808301925050505050505091929192908035906020019064010000000081111561049f57600080fd5b8201836020820111156104b157600080fd5b803590602001918460018302840111640100000000831117156104d357600080fd5b91908080601f016020809104026020016040519081016040528093929190818152602001838380828437600081840152601f19601f8201169050808301925050505050505091929192908035906020019092919080359060200190929190803590602001909291908035906020019092919080359060200190929190803590602001909291908035906020019092919050505061105a565b005b34801561057957600080fd5b506105a66004803603602081101561059057600080fd5b81019080803590602001909291905050506113d4565b6040518082815260200191505060405180910390f35b3480156105c857600080fd5b506105d16113f4565b604051808060200184815260200180602001838103835286818151815260200191508051906020019080838360005b8381101561061b578082015181840152602081019050610600565b50505050905090810190601f1680156106485780820380516001836020036101000a031916815260200191505b50838103825284818151815260200191508051906020019080838360005b83811015610681578082015181840152602081019050610666565b50505050905090810190601f1680156106ae5780820380516001836020036101000a031916815260200191505b509550505050505060405180910390f35b3480156106cb57600080fd5b506106d4611583565b6040518082815260200191505060405180910390f35b3480156106f657600080fd5b5061074d6004803603606081101561070d57600080fd5b810190808035906020019092919080359060200190929190803573ffffffffffffffffffffffffffffffffffffffff169060200190929190505050611589565b005b34801561075b57600080fd5b506107926004803603604081101561077257600080fd5b81019080803590602001909291908035906020019092919050505061168f565b6040518080602001888152602001878152602001868152602001858152602001848152602001838152602001828103825289818151815260200191508051906020019080838360005b838110156107f65780820151818401526020810190506107db565b50505050905090810190601f1680156108235780820380516001836020036101000a031916815260200191505b509850505050505050505060405180910390f35b34801561084357600080fd5b5061087a6004803603604081101561085a57600080fd5b810190808035906020019092919080359060200190929190505050611800565b6040518080602001878152602001806020018060200186815260200185815260200184810384528a818151815260200191508051906020019080838360005b838110156108d45780820151818401526020810190506108b9565b50505050905090810190601f1680156109015780820380516001836020036101000a031916815260200191505b50848103835288818151815260200191508051906020019080838360005b8381101561093a57808201518184015260208101905061091f565b50505050905090810190601f1680156109675780820380516001836020036101000a031916815260200191505b50848103825287818151815260200191508051906020019080838360005b838110156109a0578082015181840152602081019050610985565b50505050905090810190601f1680156109cd5780820380516001836020036101000a031916815260200191505b50995050505050505050505060405180910390f35b3480156109ee57600080fd5b506109f7611a5d565b6040518082815260200191505060405180910390f35b348015610a1957600080fd5b50610a22611a63565b6040518082815260200191505060405180910390f35b348015610a4457600080fd5b50610a7160048036036020811015610a5b57600080fd5b8101908080359060200190929190505050611a69565b604051808c8152602001806020018b815260200180602001806020018a815260200189815260200188815260200187815260200186815260200185815260200184810384528e818151815260200191508051906020019080838360005b83811015610ae9578082015181840152602081019050610ace565b50505050905090810190601f168015610b165780820380516001836020036101000a031916815260200191505b5084810383528c818151815260200191508051906020019080838360005b83811015610b4f578082015181840152602081019050610b34565b50505050905090810190601f168015610b7c5780820380516001836020036101000a031916815260200191505b5084810382528b818151815260200191508051906020019080838360005b83811015610bb5578082015181840152602081019050610b9a565b50505050905090810190601f168015610be25780820380516001836020036101000a031916815260200191505b509e50505050505050505050505050505060405180910390f35b348015610c0857600080fd5b50610d6360048036036060811015610c1f57600080fd5b8101908080359060200190640100000000811115610c3c57600080fd5b820183602082011115610c4e57600080fd5b80359060200191846001830284011164010000000083111715610c7057600080fd5b91908080601f016020809104026020016040519081016040528093929190818152602001838380828437600081840152601f19601f8201169050808301925050505050505091929192908035906020019092919080359060200190640100000000811115610cdd57600080fd5b820183602082011115610cef57600080fd5b80359060200191846001830284011164010000000083111715610d1157600080fd5b91908080601f016020809104026020016040519081016040528093929190818152602001838380828437600081840152601f19601f820116905080830192505050505050509192919290505050611c8b565b005b606060006060600060046000868152602001908152602001600020600101600460008781526020019081526020016000206002015460046000888152602001908152602001600020600301600054838054600181600116156101000203166002900480601f016020809104026020016040519081016040528092919081815260200182805460018160011615610100020316600290048015610e485780601f10610e1d57610100808354040283529160200191610e48565b820191906000526020600020905b815481529060010190602001808311610e2b57829003601f168201915b50505050509350818054600181600116156101000203166002900480601f016020809104026020016040519081016040528092919081815260200182805460018160011615610100020316600290048015610ee45780601f10610eb957610100808354040283529160200191610ee4565b820191906000526020600020905b815481529060010190602001808311610ec757829003601f168201915b5050505050915093509350935093509193509193565b6004602052806000526040600020600091509050806000015490806001018054600181600116156101000203166002900480601f016020809104026020016040519081016040528092919081815260200182805460018160011615610100020316600290048015610fac5780601f10610f8157610100808354040283529160200191610fac565b820191906000526020600020905b815481529060010190602001808311610f8f57829003601f168201915b505050505090806002015490806003018054600181600116156101000203166002900480601f0160208091040260200160405190810160405280929190818152602001828054600181600116156101000203166002900480156110505780601f1061102557610100808354040283529160200191611050565b820191906000526020600020905b81548152906001019060200180831161103357829003601f168201915b5050505050905084565b6001600081548092919060010191905055506101606040519081016040528060015481526020018c81526020018b81526020018a8152602001898152602001878152602001868152602001858152602001848152602001838152602001828152506005600060015481526020019081526020016000206000820151816000015560208201518160010190805190602001906110f6929190611d2a565b5060408201518160020155606082015181600301908051906020019061111d929190611d2a565b50608082015181600401908051906020019061113a929190611d2a565b5060a0820151816005015560c0820151816006015560e082015181600701556101008201518160080155610120820151816009015561014082015181600a015590505060008090505b6001600660008481526020019081526020016000208054905003811015611331578760066000848152602001908152602001600020828154811015156111c557fe5b906000526020600020016000015414156113245760066000838152602001908152602001600020600160066000858152602001908152602001600020805490500381548110151561121257fe5b9060005260206000200160000154600660008481526020019081526020016000208281548110151561124057fe5b906000526020600020016000018190555060076000838152602001908152602001600020600160076000858152602001908152602001600020805490500381548110151561128a57fe5b9060005260206000200160000160009054906101000a900473ffffffffffffffffffffffffffffffffffffffff1660076000848152602001908152602001600020828154811015156112d857fe5b9060005260206000200160000160006101000a81548173ffffffffffffffffffffffffffffffffffffffff021916908373ffffffffffffffffffffffffffffffffffffffff1602179055505b8080600101915050611183565b5060066000828152602001908152602001600020805480151561135057fe5b600190038181906000526020600020016000808201600090555050905560076000828152602001908152602001600020805480151561138b57fe5b60019003818190600052602060002001600080820160006101000a81549073ffffffffffffffffffffffffffffffffffffffff0219169055505090555050505050505050505050565b600060066000838152602001908152602001600020805490509050919050565b60606000606060046000805481526020019081526020016000206001016004600080548152602001908152602001600020600201546004600080548152602001908152602001600020600301828054600181600116156101000203166002900480601f0160208091040260200160405190810160405280929190818152602001828054600181600116156101000203166002900480156114d55780601f106114aa576101008083540402835291602001916114d5565b820191906000526020600020905b8154815290600101906020018083116114b857829003601f168201915b50505050509250808054600181600116156101000203166002900480601f0160208091040260200160405190810160405280929190818152602001828054600181600116156101000203166002900480156115715780601f1061154657610100808354040283529160200191611571565b820191906000526020600020905b81548152906001019060200180831161155457829003601f168201915b50505050509050925092509250909192565b60005481565b600660008381526020019081526020016000206020604051908101604052808581525090806001815401808255809150509060018203906000526020600020016000909192909190915060008201518160000155505050600760008381526020019081526020016000206020604051908101604052808373ffffffffffffffffffffffffffffffffffffffff1681525090806001815401808255809150509060018203906000526020600020016000909192909190915060008201518160000160006101000a81548173ffffffffffffffffffffffffffffffffffffffff021916908373ffffffffffffffffffffffffffffffffffffffff160217905550505050505050565b6060600080600080600080600560008a8152602001908152602001600020600a01548814156117f357600560008a8152602001908152602001600020600101600560008b815260200190815260200160002060050154600560008c815260200190815260200160002060060154600560008d815260200190815260200160002060070154600560008e815260200190815260200160002060080154600560008f815260200190815260200160002060090154600154868054600181600116156101000203166002900480601f0160208091040260200160405190810160405280929190818152602001828054600181600116156101000203166002900480156117d95780601f106117ae576101008083540402835291602001916117d9565b820191906000526020600020905b8154815290600101906020018083116117bc57829003601f168201915b5050505050965096509650965096509650965096506117f4565b5b92959891949750929550565b606060006060806000806000600760008981526020019081526020016000208981548110151561182c57fe5b9060005260206000200160000160009054906101000a900473ffffffffffffffffffffffffffffffffffffffff1690508073ffffffffffffffffffffffffffffffffffffffff16631c3fcc60600660008b81526020019081526020016000208b81548110151561189857fe5b90600052602060002001600001546040518263ffffffff167c01000000000000000000000000000000000000000000000000000000000281526004018082815260200191505060006040518083038186803b1580156118f657600080fd5b505afa15801561190a573d6000803e3d6000fd5b505050506040513d6000823e3d601f19601f8201168201806040525060c081101561193457600080fd5b81019080805164010000000081111561194c57600080fd5b8281019050602081018481111561196257600080fd5b815185600182028301116401000000008211171561197f57600080fd5b50509291906020018051906020019092919080516401000000008111156119a557600080fd5b828101905060208101848111156119bb57600080fd5b81518560018202830111640100000000821117156119d857600080fd5b505092919060200180516401000000008111156119f457600080fd5b82810190506020810184811115611a0a57600080fd5b8151856001820283011164010000000082111715611a2757600080fd5b50509291906020018051906020019092919080519060200190929190505050965096509650965096509650509295509295509295565b60035481565b60015481565b6005602052806000526040600020600091509050806000015490806001018054600181600116156101000203166002900480601f016020809104026020016040519081016040528092919081815260200182805460018160011615610100020316600290048015611b1b5780601f10611af057610100808354040283529160200191611b1b565b820191906000526020600020905b815481529060010190602001808311611afe57829003601f168201915b505050505090806002015490806003018054600181600116156101000203166002900480601f016020809104026020016040519081016040528092919081815260200182805460018160011615610100020316600290048015611bbf5780601f10611b9457610100808354040283529160200191611bbf565b820191906000526020600020905b815481529060010190602001808311611ba257829003601f168201915b505050505090806004018054600181600116156101000203166002900480601f016020809104026020016040519081016040528092919081815260200182805460018160011615610100020316600290048015611c5d5780601f10611c3257610100808354040283529160200191611c5d565b820191906000526020600020905b815481529060010190602001808311611c4057829003601f168201915b50505050509080600501549080600601549080600701549080600801549080600901549080600a015490508b565b60008081548092919060010191905055506080604051908101604052806000548152602001848152602001838152602001828152506004600080548152602001908152602001600020600082015181600001556020820151816001019080519060200190611cfa929190611d2a565b50604082015181600201556060820151816003019080519060200190611d21929190611d2a565b50905050505050565b828054600181600116156101000203166002900490600052602060002090601f016020900481019282601f10611d6b57805160ff1916838001178555611d99565b82800160010185558215611d99579182015b82811115611d98578251825591602001919060010190611d7d565b5b509050611da69190611daa565b5090565b611dcc91905b80821115611dc8576000816000905550600101611db0565b5090565b9056fea165627a7a7230582007419b30c0c0154aa8e4c16d3ce0291b527a79e4be4ce8fdced406b25454d2970029",
  "source": "\npragma solidity ^0.5.0;\nimport './Patient.sol';\ncontract Doctor{\n    uint public doctorCount = 0;\n    uint public treatCount = 0;\n   address addressP;\n    uint public p;\n    mapping(uint => Info) public info;\n    mapping(uint => PatientList) public patientlist;\n     mapping(uint => WaitList[]) waitlist;\n     mapping(uint => WaitListAddress[]) waitlist_add;\n    struct WaitList{\n        uint wait;\n    }\n    struct WaitListAddress{\n        address add;\n    }\n    struct PatientList{\n        uint pid;\n        string name;\n        uint age;\n        string gender;\n        string bg;\n        bytes32 medname;\n        bytes32 medtype;\n        bytes32 sdate;\n        bytes32 edate;\n        bytes32 nof;\n        uint did;\n    }\n    struct Info{\n    uint id;\n    string name;\n    uint age;\n    string gender;\n    }\n    function WriteMedication(string memory _name, uint _age, string memory _gender, string memory _bg,uint _pid,bytes32 _medname,\n     bytes32 _medtype,bytes32 _sdate,bytes32 _edate,bytes32 _nof,uint _did ) public{\n        treatCount++;\n        patientlist[treatCount] = PatientList(treatCount,_name,_age,_gender,_bg,_medname,_medtype,_sdate,_edate,_nof,_did);\n        for(uint i = 0;i<waitlist[_did].length-1;i++){\n            if(waitlist[_did][i].wait==_pid){\n                waitlist[_did][i].wait = waitlist[_did][waitlist[_did].length-1].wait;\n                waitlist_add[_did][i].add = waitlist_add[_did][waitlist_add[_did].length-1].add;\n            }\n        }\n        waitlist[_did].pop();\n        waitlist_add[_did].pop();\n    }\n    function GetMedicationList(uint _id,uint _key)public view returns(string memory _name,bytes32 _medname, bytes32 _medtype,\n     bytes32 _sdate, bytes32 _edate, bytes32 _nof,uint _treatCount){\n         if(_key==patientlist[_id].did)\n        return(patientlist[_id].name,patientlist[_id].medname,patientlist[_id].medtype,patientlist[_id].sdate,\n        patientlist[_id].edate,patientlist[_id].nof,treatCount);\n    }\n    function setp(uint _p_id,uint _key, address _address) public {\n     waitlist[_key].push(WaitList(_p_id));\n     waitlist_add[_key].push(WaitListAddress(_address));\n    }\nfunction getPlen (uint _key) external view returns(uint count) {\n        return (waitlist[_key].length);\n }\n function getP (uint _id,uint _key) external view returns(string memory _name, uint _age, string memory _gender,\n  string memory _bg,uint _patientCount,uint _pid) {\n       Patient myPatient = Patient(waitlist_add[_key][_id].add);\n        return (myPatient.getall(waitlist[_key][_id].wait));\n }\n//  function setAddressB(address _address) external{\n//      addressP = _address;\n//  }\n//  function getAddressB() public view returns(address a){\n//      return(addressP);\n//  }\n    function set(string memory _name, uint _age, string memory _gender) public {\n        doctorCount++;\n        info[doctorCount] = Info(doctorCount, _name,_age,_gender);\n    }\n    function get() public view returns(string memory _name, uint _age, string memory _gender){\n    return (info[doctorCount].name, info[doctorCount].age, info[doctorCount].gender) ;\n    }\n    function getall(uint i) public view returns(string memory _name, uint _age, string memory _gender,uint _doctorCount){\n        return (info[i].name, info[i].age, info[i].gender,doctorCount);\n    }\n}",
  "sourcePath": "/Users/sachinchandwani/Desktop/Healthcare_in_BlockChain/src/contracts/Doctor.sol",
  "compiler": {
    "name": "solc",
    "version": "0.5.0+commit.1d4f565a.Emscripten.clang"
  },
  "schemaVersion": "3.0.2",
  "updatedAt": "2019-12-24T14:20:03.983Z",
  "devdoc": {
    "methods": {}
  },
  "userdoc": {
    "methods": {}
  }
}