{
  "contractName": "Patient",
  "abi": [
    {
      "constant": true,
      "inputs": [
        {
          "name": "",
          "type": "uint256"
        }
      ],
      "name": "info",
      "outputs": [
        {
          "name": "id",
          "type": "uint256"
        },
        {
          "name": "name",
          "type": "string"
        },
        {
          "name": "age",
          "type": "uint256"
        },
        {
          "name": "gender",
          "type": "string"
        },
        {
          "name": "bg",
          "type": "string"
        }
      ],
      "payable": false,
      "stateMutability": "view",
      "type": "function",
      "signature": "0x2e340599"
    },
    {
      "constant": true,
      "inputs": [],
      "name": "patientCount",
      "outputs": [
        {
          "name": "",
          "type": "uint256"
        }
      ],
      "payable": false,
      "stateMutability": "view",
      "type": "function",
      "signature": "0xa0303c41"
    },
    {
      "constant": true,
      "inputs": [],
      "name": "hCount",
      "outputs": [
        {
          "name": "",
          "type": "uint256"
        }
      ],
      "payable": false,
      "stateMutability": "view",
      "type": "function",
      "signature": "0xa3b8184d"
    },
    {
      "constant": true,
      "inputs": [
        {
          "name": "",
          "type": "uint256"
        }
      ],
      "name": "history",
      "outputs": [
        {
          "name": "id",
          "type": "uint256"
        },
        {
          "name": "dname",
          "type": "string"
        },
        {
          "name": "medicine",
          "type": "string"
        },
        {
          "name": "sdate",
          "type": "string"
        },
        {
          "name": "edate",
          "type": "string"
        },
        {
          "name": "nof",
          "type": "string"
        },
        {
          "name": "pid",
          "type": "uint256"
        }
      ],
      "payable": false,
      "stateMutability": "view",
      "type": "function",
      "signature": "0xa7a38f0b"
    },
    {
      "constant": false,
      "inputs": [
        {
          "name": "_dname",
          "type": "string"
        },
        {
          "name": "_medicine",
          "type": "string"
        },
        {
          "name": "_sdate",
          "type": "string"
        },
        {
          "name": "_edate",
          "type": "string"
        },
        {
          "name": "_nof",
          "type": "string"
        },
        {
          "name": "_pid",
          "type": "uint256"
        }
      ],
      "name": "addDoc",
      "outputs": [],
      "payable": false,
      "stateMutability": "nonpayable",
      "type": "function",
      "signature": "0xd9573e48"
    },
    {
      "constant": true,
      "inputs": [
        {
          "name": "i",
          "type": "uint256"
        },
        {
          "name": "_p",
          "type": "uint256"
        }
      ],
      "name": "viewHist",
      "outputs": [
        {
          "name": "_dname",
          "type": "string"
        },
        {
          "name": "_medicine",
          "type": "string"
        },
        {
          "name": "_sdate",
          "type": "string"
        },
        {
          "name": "_edate",
          "type": "string"
        },
        {
          "name": "_nof",
          "type": "string"
        },
        {
          "name": "_hCount",
          "type": "uint256"
        }
      ],
      "payable": false,
      "stateMutability": "view",
      "type": "function",
      "signature": "0x7113e8e7"
    },
    {
      "constant": false,
      "inputs": [
        {
          "name": "_name",
          "type": "string"
        },
        {
          "name": "_age",
          "type": "uint256"
        },
        {
          "name": "_gender",
          "type": "string"
        },
        {
          "name": "_bg",
          "type": "string"
        }
      ],
      "name": "set",
      "outputs": [],
      "payable": false,
      "stateMutability": "nonpayable",
      "type": "function",
      "signature": "0x894e27c4"
    },
    {
      "constant": true,
      "inputs": [],
      "name": "get",
      "outputs": [
        {
          "name": "_name",
          "type": "string"
        },
        {
          "name": "_age",
          "type": "uint256"
        },
        {
          "name": "_gender",
          "type": "string"
        },
        {
          "name": "_bg",
          "type": "string"
        }
      ],
      "payable": false,
      "stateMutability": "view",
      "type": "function",
      "signature": "0x6d4ce63c"
    },
    {
      "constant": true,
      "inputs": [
        {
          "name": "i",
          "type": "uint256"
        }
      ],
      "name": "getall",
      "outputs": [
        {
          "name": "_name",
          "type": "string"
        },
        {
          "name": "_age",
          "type": "uint256"
        },
        {
          "name": "_gender",
          "type": "string"
        },
        {
          "name": "_bg",
          "type": "string"
        },
        {
          "name": "_patientCount",
          "type": "uint256"
        },
        {
          "name": "id",
          "type": "uint256"
        }
      ],
      "payable": false,
      "stateMutability": "view",
      "type": "function",
      "signature": "0x1c3fcc60"
    }
  ],
  "bytecode": "0x608060405260008055600060015534801561001957600080fd5b50612005806100296000396000f3fe608060405260043610610099576000357c0100000000000000000000000000000000000000000000000000000000900463ffffffff1680631c3fcc601461009e5780632e3405991461023f5780636d4ce63c146103d95780637113e8e714610548578063894e27c4146107bd578063a0303c41146109bd578063a3b8184d146109e8578063a7a38f0b14610a13578063d9573e4814610c85575b600080fd5b3480156100aa57600080fd5b506100d7600480360360208110156100c157600080fd5b8101908080359060200190929190505050610fb3565b6040518080602001878152602001806020018060200186815260200185815260200184810384528a818151815260200191508051906020019080838360005b83811015610131578082015181840152602081019050610116565b50505050905090810190601f16801561015e5780820380516001836020036101000a031916815260200191505b50848103835288818151815260200191508051906020019080838360005b8381101561019757808201518184015260208101905061017c565b50505050905090810190601f1680156101c45780820380516001836020036101000a031916815260200191505b50848103825287818151815260200191508051906020019080838360005b838110156101fd5780820151818401526020810190506101e2565b50505050905090810190601f16801561022a5780820380516001836020036101000a031916815260200191505b50995050505050505050505060405180910390f35b34801561024b57600080fd5b506102786004803603602081101561026257600080fd5b8101908080359060200190929190505050611219565b60405180868152602001806020018581526020018060200180602001848103845288818151815260200191508051906020019080838360005b838110156102cc5780820151818401526020810190506102b1565b50505050905090810190601f1680156102f95780820380516001836020036101000a031916815260200191505b50848103835286818151815260200191508051906020019080838360005b83811015610332578082015181840152602081019050610317565b50505050905090810190601f16801561035f5780820380516001836020036101000a031916815260200191505b50848103825285818151815260200191508051906020019080838360005b8381101561039857808201518184015260208101905061037d565b50505050905090810190601f1680156103c55780820380516001836020036101000a031916815260200191505b509850505050505050505060405180910390f35b3480156103e557600080fd5b506103ee611417565b60405180806020018581526020018060200180602001848103845288818151815260200191508051906020019080838360005b8381101561043c578082015181840152602081019050610421565b50505050905090810190601f1680156104695780820380516001836020036101000a031916815260200191505b50848103835286818151815260200191508051906020019080838360005b838110156104a2578082015181840152602081019050610487565b50505050905090810190601f1680156104cf5780820380516001836020036101000a031916815260200191505b50848103825285818151815260200191508051906020019080838360005b838110156105085780820151818401526020810190506104ed565b50505050905090810190601f1680156105355780820380516001836020036101000a031916815260200191505b5097505050505050505060405180910390f35b34801561055457600080fd5b5061058b6004803603604081101561056b57600080fd5b81019080803590602001909291908035906020019092919050505061165d565b60405180806020018060200180602001806020018060200187815260200186810386528c818151815260200191508051906020019080838360005b838110156105e15780820151818401526020810190506105c6565b50505050905090810190601f16801561060e5780820380516001836020036101000a031916815260200191505b5086810385528b818151815260200191508051906020019080838360005b8381101561064757808201518184015260208101905061062c565b50505050905090810190601f1680156106745780820380516001836020036101000a031916815260200191505b5086810384528a818151815260200191508051906020019080838360005b838110156106ad578082015181840152602081019050610692565b50505050905090810190601f1680156106da5780820380516001836020036101000a031916815260200191505b50868103835289818151815260200191508051906020019080838360005b838110156107135780820151818401526020810190506106f8565b50505050905090810190601f1680156107405780820380516001836020036101000a031916815260200191505b50868103825288818151815260200191508051906020019080838360005b8381101561077957808201518184015260208101905061075e565b50505050905090810190601f1680156107a65780820380516001836020036101000a031916815260200191505b509b50505050505050505050505060405180910390f35b3480156107c957600080fd5b506109bb600480360360808110156107e057600080fd5b81019080803590602001906401000000008111156107fd57600080fd5b82018360208201111561080f57600080fd5b8035906020019184600183028401116401000000008311171561083157600080fd5b91908080601f016020809104026020016040519081016040528093929190818152602001838380828437600081840152601f19601f820116905080830192505050505050509192919290803590602001909291908035906020019064010000000081111561089e57600080fd5b8201836020820111156108b057600080fd5b803590602001918460018302840111640100000000831117156108d257600080fd5b91908080601f016020809104026020016040519081016040528093929190818152602001838380828437600081840152601f19601f8201169050808301925050505050505091929192908035906020019064010000000081111561093557600080fd5b82018360208201111561094757600080fd5b8035906020019184600183028401116401000000008311171561096957600080fd5b91908080601f016020809104026020016040519081016040528093929190818152602001838380828437600081840152601f19601f820116905080830192505050505050509192919290505050611a1e565b005b3480156109c957600080fd5b506109d2611ae1565b6040518082815260200191505060405180910390f35b3480156109f457600080fd5b506109fd611ae7565b6040518082815260200191505060405180910390f35b348015610a1f57600080fd5b50610a4c60048036036020811015610a3657600080fd5b8101908080359060200190929190505050611aed565b60405180888152602001806020018060200180602001806020018060200187815260200186810386528c818151815260200191508051906020019080838360005b83811015610aa8578082015181840152602081019050610a8d565b50505050905090810190601f168015610ad55780820380516001836020036101000a031916815260200191505b5086810385528b818151815260200191508051906020019080838360005b83811015610b0e578082015181840152602081019050610af3565b50505050905090810190601f168015610b3b5780820380516001836020036101000a031916815260200191505b5086810384528a818151815260200191508051906020019080838360005b83811015610b74578082015181840152602081019050610b59565b50505050905090810190601f168015610ba15780820380516001836020036101000a031916815260200191505b50868103835289818151815260200191508051906020019080838360005b83811015610bda578082015181840152602081019050610bbf565b50505050905090810190601f168015610c075780820380516001836020036101000a031916815260200191505b50868103825288818151815260200191508051906020019080838360005b83811015610c40578082015181840152602081019050610c25565b50505050905090810190601f168015610c6d5780820380516001836020036101000a031916815260200191505b509c5050505050505050505050505060405180910390f35b348015610c9157600080fd5b50610fb1600480360360c0811015610ca857600080fd5b8101908080359060200190640100000000811115610cc557600080fd5b820183602082011115610cd757600080fd5b80359060200191846001830284011164010000000083111715610cf957600080fd5b91908080601f016020809104026020016040519081016040528093929190818152602001838380828437600081840152601f19601f82011690508083019250505050505050919291929080359060200190640100000000811115610d5c57600080fd5b820183602082011115610d6e57600080fd5b80359060200191846001830284011164010000000083111715610d9057600080fd5b91908080601f016020809104026020016040519081016040528093929190818152602001838380828437600081840152601f19601f82011690508083019250505050505050919291929080359060200190640100000000811115610df357600080fd5b820183602082011115610e0557600080fd5b80359060200191846001830284011164010000000083111715610e2757600080fd5b91908080601f016020809104026020016040519081016040528093929190818152602001838380828437600081840152601f19601f82011690508083019250505050505050919291929080359060200190640100000000811115610e8a57600080fd5b820183602082011115610e9c57600080fd5b80359060200191846001830284011164010000000083111715610ebe57600080fd5b91908080601f016020809104026020016040519081016040528093929190818152602001838380828437600081840152601f19601f82011690508083019250505050505050919291929080359060200190640100000000811115610f2157600080fd5b820183602082011115610f3357600080fd5b80359060200191846001830284011164010000000083111715610f5557600080fd5b91908080601f016020809104026020016040519081016040528093929190818152602001838380828437600081840152601f19601f82011690508083019250505050505050919291929080359060200190929190505050611e27565b005b60606000606080600080600260008881526020019081526020016000206001016002600089815260200190815260200160002060020154600260008a8152602001908152602001600020600301600260008b8152602001908152602001600020600401600054600260008d815260200190815260200160002060000154858054600181600116156101000203166002900480601f0160208091040260200160405190810160405280929190818152602001828054600181600116156101000203166002900480156110c55780601f1061109a576101008083540402835291602001916110c5565b820191906000526020600020905b8154815290600101906020018083116110a857829003601f168201915b50505050509550838054600181600116156101000203166002900480601f0160208091040260200160405190810160405280929190818152602001828054600181600116156101000203166002900480156111615780601f1061113657610100808354040283529160200191611161565b820191906000526020600020905b81548152906001019060200180831161114457829003601f168201915b50505050509350828054600181600116156101000203166002900480601f0160208091040260200160405190810160405280929190818152602001828054600181600116156101000203166002900480156111fd5780601f106111d2576101008083540402835291602001916111fd565b820191906000526020600020905b8154815290600101906020018083116111e057829003601f168201915b5050505050925095509550955095509550955091939550919395565b6002602052806000526040600020600091509050806000015490806001018054600181600116156101000203166002900480601f0160208091040260200160405190810160405280929190818152602001828054600181600116156101000203166002900480156112cb5780601f106112a0576101008083540402835291602001916112cb565b820191906000526020600020905b8154815290600101906020018083116112ae57829003601f168201915b505050505090806002015490806003018054600181600116156101000203166002900480601f01602080910402602001604051908101604052809291908181526020018280546001816001161561010002031660029004801561136f5780601f106113445761010080835404028352916020019161136f565b820191906000526020600020905b81548152906001019060200180831161135257829003601f168201915b505050505090806004018054600181600116156101000203166002900480601f01602080910402602001604051908101604052809291908181526020018280546001816001161561010002031660029004801561140d5780601f106113e25761010080835404028352916020019161140d565b820191906000526020600020905b8154815290600101906020018083116113f057829003601f168201915b5050505050905085565b60606000606080600260008054815260200190815260200160002060010160026000805481526020019081526020016000206002015460026000805481526020019081526020016000206003016002600080548152602001908152602001600020600401838054600181600116156101000203166002900480601f0160208091040260200160405190810160405280929190818152602001828054600181600116156101000203166002900480156115105780601f106114e557610100808354040283529160200191611510565b820191906000526020600020905b8154815290600101906020018083116114f357829003601f168201915b50505050509350818054600181600116156101000203166002900480601f0160208091040260200160405190810160405280929190818152602001828054600181600116156101000203166002900480156115ac5780601f10611581576101008083540402835291602001916115ac565b820191906000526020600020905b81548152906001019060200180831161158f57829003601f168201915b50505050509150808054600181600116156101000203166002900480601f0160208091040260200160405190810160405280929190818152602001828054600181600116156101000203166002900480156116485780601f1061161d57610100808354040283529160200191611648565b820191906000526020600020905b81548152906001019060200180831161162b57829003601f168201915b50505050509050935093509350935090919293565b606080606080606060006003600089815260200190815260200160002060060154871415611a135760036000898152602001908152602001600020600101600360008a8152602001908152602001600020600201600360008b8152602001908152602001600020600301600360008c8152602001908152602001600020600401600360008d8152602001908152602001600020600501600154858054600181600116156101000203166002900480601f01602080910402602001604051908101604052809291908181526020018280546001816001161561010002031660029004801561178b5780601f106117605761010080835404028352916020019161178b565b820191906000526020600020905b81548152906001019060200180831161176e57829003601f168201915b50505050509550848054600181600116156101000203166002900480601f0160208091040260200160405190810160405280929190818152602001828054600181600116156101000203166002900480156118275780601f106117fc57610100808354040283529160200191611827565b820191906000526020600020905b81548152906001019060200180831161180a57829003601f168201915b50505050509450838054600181600116156101000203166002900480601f0160208091040260200160405190810160405280929190818152602001828054600181600116156101000203166002900480156118c35780601f10611898576101008083540402835291602001916118c3565b820191906000526020600020905b8154815290600101906020018083116118a657829003601f168201915b50505050509350828054600181600116156101000203166002900480601f01602080910402602001604051908101604052809291908181526020018280546001816001161561010002031660029004801561195f5780601f106119345761010080835404028352916020019161195f565b820191906000526020600020905b81548152906001019060200180831161194257829003601f168201915b50505050509250818054600181600116156101000203166002900480601f0160208091040260200160405190810160405280929190818152602001828054600181600116156101000203166002900480156119fb5780601f106119d0576101008083540402835291602001916119fb565b820191906000526020600020905b8154815290600101906020018083116119de57829003601f168201915b50505050509150955095509550955095509550611a14565b5b9295509295509295565b600080815480929190600101919050555060a0604051908101604052806000548152602001858152602001848152602001838152602001828152506002600080548152602001908152602001600020600082015181600001556020820151816001019080519060200190611a93929190611f34565b50604082015181600201556060820151816003019080519060200190611aba929190611f34565b506080820151816004019080519060200190611ad7929190611f34565b5090505050505050565b60005481565b60015481565b6003602052806000526040600020600091509050806000015490806001018054600181600116156101000203166002900480601f016020809104026020016040519081016040528092919081815260200182805460018160011615610100020316600290048015611b9f5780601f10611b7457610100808354040283529160200191611b9f565b820191906000526020600020905b815481529060010190602001808311611b8257829003601f168201915b505050505090806002018054600181600116156101000203166002900480601f016020809104026020016040519081016040528092919081815260200182805460018160011615610100020316600290048015611c3d5780601f10611c1257610100808354040283529160200191611c3d565b820191906000526020600020905b815481529060010190602001808311611c2057829003601f168201915b505050505090806003018054600181600116156101000203166002900480601f016020809104026020016040519081016040528092919081815260200182805460018160011615610100020316600290048015611cdb5780601f10611cb057610100808354040283529160200191611cdb565b820191906000526020600020905b815481529060010190602001808311611cbe57829003601f168201915b505050505090806004018054600181600116156101000203166002900480601f016020809104026020016040519081016040528092919081815260200182805460018160011615610100020316600290048015611d795780601f10611d4e57610100808354040283529160200191611d79565b820191906000526020600020905b815481529060010190602001808311611d5c57829003601f168201915b505050505090806005018054600181600116156101000203166002900480601f016020809104026020016040519081016040528092919081815260200182805460018160011615610100020316600290048015611e175780601f10611dec57610100808354040283529160200191611e17565b820191906000526020600020905b815481529060010190602001808311611dfa57829003601f168201915b5050505050908060060154905087565b60016000815480929190600101919050555060e060405190810160405280600154815260200187815260200186815260200185815260200184815260200183815260200182815250600360006001548152602001908152602001600020600082015181600001556020820151816001019080519060200190611eaa929190611f34565b506040820151816002019080519060200190611ec7929190611f34565b506060820151816003019080519060200190611ee4929190611f34565b506080820151816004019080519060200190611f01929190611f34565b5060a0820151816005019080519060200190611f1e929190611f34565b5060c08201518160060155905050505050505050565b828054600181600116156101000203166002900490600052602060002090601f016020900481019282601f10611f7557805160ff1916838001178555611fa3565b82800160010185558215611fa3579182015b82811115611fa2578251825591602001919060010190611f87565b5b509050611fb09190611fb4565b5090565b611fd691905b80821115611fd2576000816000905550600101611fba565b5090565b9056fea165627a7a72305820647def0f5ab2cae0a48914d1a85960d2fe8f1c0359735c0bb943651810c4494c0029",
  "source": "\npragma solidity ^0.5.0;\n\ncontract Patient{\n    uint public patientCount = 0;\n    uint public hCount=0;\n    mapping(uint => Info) public info;\n    mapping(uint => History) public history;\n    struct Info{\n    uint id;\n    string name;\n    uint age;\n    string gender;\n    string bg;\n    }\n    struct History{\n        uint id;\n        string dname;\n        string medicine;\n        string sdate;\n        string edate;\n        string nof;\n        uint pid;\n    }\n    function addDoc(string memory _dname,string memory _medicine, string memory _sdate, string memory _edate, string memory _nof,\n    uint _pid) public{\n        hCount++;\n        history[hCount] = History(hCount,_dname,_medicine,_sdate,_edate,_nof,_pid);\n    }\nfunction viewHist(uint i,uint _p) public view returns(string memory _dname,string memory _medicine, string memory _sdate,\nstring memory _edate, string memory _nof,uint _hCount){\n    if(_p==history[i].pid){\n            return(history[i].dname,history[i].medicine,history[i].sdate,history[i].edate,history[i].nof,hCount);\n        }\n    }\n    function set(string memory _name, uint _age, string memory _gender,string memory _bg) public {\n        patientCount++;\n        info[patientCount] = Info(patientCount, _name,_age,_gender,_bg);\n    }\n    function get() public view returns(string memory _name, uint _age, string memory _gender, string memory _bg){\n    return (info[patientCount].name, info[patientCount].age, info[patientCount].gender,info[patientCount].bg) ;\n    }\n    function getall(uint i) public view returns(string memory _name, uint _age, string memory _gender, string memory _bg,\n    uint _patientCount,uint id){\n    return (info[i].name, info[i].age, info[i].gender,info[i].bg,patientCount,info[i].id);\n    }\n}",
  "sourcePath": "/Users/sachinchandwani/Desktop/Healthcare_in_BlockChain/src/contracts/Patient.sol",
  "compiler": {
    "name": "solc",
    "version": "0.5.0+commit.1d4f565a.Emscripten.clang"
  },
  "schemaVersion": "3.0.2",
  "updatedAt": "2019-12-24T14:20:04.826Z",
  "devdoc": {
    "methods": {}
  },
  "userdoc": {
    "methods": {}
  }
}